{
  "_format": "hh-sol-artifact-1",
  "contractName": "Election",
  "sourceName": "contracts/election.sol",
  "abi": [
    {
      "inputs": [],
      "stateMutability": "nonpayable",
      "type": "constructor"
    },
    {
      "inputs": [],
      "name": "GetCount",
      "outputs": [
        {
          "internalType": "euint256",
          "name": "redVotes",
          "type": "uint256"
        },
        {
          "internalType": "euint256",
          "name": "blueVotes",
          "type": "uint256"
        }
      ],
      "stateMutability": "view",
      "type": "function"
    },
    {
      "inputs": [],
      "name": "GetResults",
      "outputs": [
        {
          "internalType": "euint256",
          "name": "redVotes",
          "type": "uint256"
        },
        {
          "internalType": "euint256",
          "name": "blueVotes",
          "type": "uint256"
        }
      ],
      "stateMutability": "view",
      "type": "function"
    },
    {
      "inputs": [
        {
          "internalType": "string",
          "name": "_candidate",
          "type": "string"
        }
      ],
      "name": "Vote",
      "outputs": [],
      "stateMutability": "nonpayable",
      "type": "function"
    },
    {
      "inputs": [],
      "name": "count",
      "outputs": [
        {
          "internalType": "euint256",
          "name": "red_total",
          "type": "uint256"
        },
        {
          "internalType": "euint256",
          "name": "blue_total",
          "type": "uint256"
        }
      ],
      "stateMutability": "view",
      "type": "function"
    },
    {
      "inputs": [],
      "name": "endElection",
      "outputs": [],
      "stateMutability": "nonpayable",
      "type": "function"
    },
    {
      "inputs": [],
      "name": "ended",
      "outputs": [
        {
          "internalType": "bool",
          "name": "",
          "type": "bool"
        }
      ],
      "stateMutability": "view",
      "type": "function"
    },
    {
      "inputs": [],
      "name": "owner",
      "outputs": [
        {
          "internalType": "address",
          "name": "",
          "type": "address"
        }
      ],
      "stateMutability": "view",
      "type": "function"
    },
    {
      "inputs": [],
      "name": "startElection",
      "outputs": [],
      "stateMutability": "nonpayable",
      "type": "function"
    },
    {
      "inputs": [],
      "name": "started",
      "outputs": [
        {
          "internalType": "bool",
          "name": "",
          "type": "bool"
        }
      ],
      "stateMutability": "view",
      "type": "function"
    }
  ],
  "bytecode": "0x608060405234801561001057600080fd5b5033600360006101000a81548173ffffffffffffffffffffffffffffffffffffffff021916908373ffffffffffffffffffffffffffffffffffffffff1602179055506000600360146101000a81548160ff0219169083151502179055506000600360156101000a81548160ff02191690831515021790555060405180604001604052806100a360006100d860201b60201c565b81526020016100b860006100d860201b60201c565b8152506000808201518160000155602082015181600101559050506102b6565b60006100eb8260086100f260201b60201c565b9050919050565b6000806101036101b360201b60201c565b90508060010160009054906101000a900473ffffffffffffffffffffffffffffffffffffffff1673ffffffffffffffffffffffffffffffffffffffff1663e71746b8858560f81b6040518363ffffffff1660e01b815260040161016792919061022f565b6020604051808303816000875af1158015610186573d6000803e3d6000fd5b505050506040513d601f19601f820116820180604052508101906101aa9190610289565b91505092915050565b60007fed8d60e34876f751cc8b014c560745351147d9de11b9347c854e881b128ea600905090565b6000819050919050565b6101ee816101db565b82525050565b60007fff0000000000000000000000000000000000000000000000000000000000000082169050919050565b610229816101f4565b82525050565b600060408201905061024460008301856101e5565b6102516020830184610220565b9392505050565b600080fd5b610266816101db565b811461027157600080fd5b50565b6000815190506102838161025d565b92915050565b60006020828403121561029f5761029e610258565b5b60006102ad84828501610274565b91505092915050565b6111e2806102c56000396000f3fe608060405234801561001057600080fd5b50600436106100935760003560e01c80631f2698ab116100665780631f2698ab14610113578063323082d71461013157806359f784681461014d57806362d73eb8146101575780638da5cb5b1461016157610093565b806306661abd14610098578063088709c4146100b75780630ab93971146100d657806312fa6feb146100f5575b600080fd5b6100a061017f565b6040516100ae9291906109d6565b60405180910390f35b6100bf610191565b6040516100cd9291906109d6565b60405180910390f35b6100de6101f6565b6040516100ec9291906109d6565b60405180910390f35b6100fd61020c565b60405161010a9190610a1a565b60405180910390f35b61011b61021f565b6040516101289190610a1a565b60405180910390f35b61014b60048036038101906101469190610b8f565b610232565b005b6101556104e1565b005b61015f61062d565b005b610169610745565b6040516101769190610c19565b60405180910390f35b60008060000154908060010154905082565b600080600360159054906101000a900460ff166101e3576040517f08c379a00000000000000000000000000000000000000000000000000000000081526004016101da90610c91565b60405180910390fd5b6000800154600060010154915091509091565b6000806000800154600060010154915091509091565b600360159054906101000a900460ff1681565b600360149054906101000a900460ff1681565b600360149054906101000a900460ff16610281576040517f08c379a000000000000000000000000000000000000000000000000000000000815260040161027890610cfd565b60405180910390fd5b600360159054906101000a900460ff16156102d1576040517f08c379a00000000000000000000000000000000000000000000000000000000081526004016102c890610d69565b60405180910390fd5b600260003373ffffffffffffffffffffffffffffffffffffffff1673ffffffffffffffffffffffffffffffffffffffff16815260200190815260200160002060009054906101000a900460ff161561035e576040517f08c379a000000000000000000000000000000000000000000000000000000000815260040161035590610dd5565b60405180910390fd5b60405160200161036d90610e4c565b60405160208183030381529060405280519060200120816040516020016103949190610ec7565b60405160208183030381529060405280519060200120036103d3576103c660008001546103c1600161076b565b61077f565b6000800181905550610486565b6040516020016103e290610f2a565b60405160208183030381529060405280519060200120816040516020016104099190610ec7565b604051602081830303815290604052805190602001200361044a5761043c600060010154610437600161076b565b61077f565b600060010181905550610485565b6040517f08c379a000000000000000000000000000000000000000000000000000000000815260040161047c90610f8b565b60405180910390fd5b5b6001600260003373ffffffffffffffffffffffffffffffffffffffff1673ffffffffffffffffffffffffffffffffffffffff16815260200190815260200160002060006101000a81548160ff02191690831515021790555050565b600360009054906101000a900473ffffffffffffffffffffffffffffffffffffffff1673ffffffffffffffffffffffffffffffffffffffff163373ffffffffffffffffffffffffffffffffffffffff1614610571576040517f08c379a00000000000000000000000000000000000000000000000000000000081526004016105689061101d565b60405180910390fd5b600360149054906101000a900460ff166105c0576040517f08c379a00000000000000000000000000000000000000000000000000000000081526004016105b790610cfd565b60405180910390fd5b600360159054906101000a900460ff1615610610576040517f08c379a000000000000000000000000000000000000000000000000000000000815260040161060790610d69565b60405180910390fd5b6001600360156101000a81548160ff021916908315150217905550565b600360009054906101000a900473ffffffffffffffffffffffffffffffffffffffff1673ffffffffffffffffffffffffffffffffffffffff163373ffffffffffffffffffffffffffffffffffffffff16146106bd576040517f08c379a00000000000000000000000000000000000000000000000000000000081526004016106b49061101d565b60405180910390fd5b600360149054906101000a900460ff161561070d576040517f08c379a000000000000000000000000000000000000000000000000000000000815260040161070490611089565b60405180910390fd5b6001600360146101000a81548160ff0219169083151502179055506000600360156101000a81548160ff021916908315150217905550565b600360009054906101000a900473ffffffffffffffffffffffffffffffffffffffff1681565b60006107788260086107c9565b9050919050565b600061078a83610884565b61079b57610798600061076b565b92505b6107a482610884565b6107b5576107b2600061076b565b91505b6107c183836000610891565b905092915050565b6000806107d4610969565b90508060010160009054906101000a900473ffffffffffffffffffffffffffffffffffffffff1673ffffffffffffffffffffffffffffffffffffffff1663e71746b8858560f81b6040518363ffffffff1660e01b81526004016108389291906110f3565b6020604051808303816000875af1158015610857573d6000803e3d6000fd5b505050506040513d601f19601f8201168201806040525081019061087b9190611148565b91505092915050565b6000808214159050919050565b60008082156108a657600160f81b90506108ae565b600060f81b90505b60006108b8610969565b90508060010160009054906101000a900473ffffffffffffffffffffffffffffffffffffffff1673ffffffffffffffffffffffffffffffffffffffff1663f953e4278787856040518463ffffffff1660e01b815260040161091b93929190611175565b6020604051808303816000875af115801561093a573d6000803e3d6000fd5b505050506040513d601f19601f8201168201806040525081019061095e9190611148565b925050509392505050565b60007fed8d60e34876f751cc8b014c560745351147d9de11b9347c854e881b128ea600905090565b6000819050919050565b6000819050919050565b60006109c06109bb6109b684610991565b61099b565b610991565b9050919050565b6109d0816109a5565b82525050565b60006040820190506109eb60008301856109c7565b6109f860208301846109c7565b9392505050565b60008115159050919050565b610a14816109ff565b82525050565b6000602082019050610a2f6000830184610a0b565b92915050565b6000604051905090565b600080fd5b600080fd5b600080fd5b600080fd5b6000601f19601f8301169050919050565b7f4e487b7100000000000000000000000000000000000000000000000000000000600052604160045260246000fd5b610a9c82610a53565b810181811067ffffffffffffffff82111715610abb57610aba610a64565b5b80604052505050565b6000610ace610a35565b9050610ada8282610a93565b919050565b600067ffffffffffffffff821115610afa57610af9610a64565b5b610b0382610a53565b9050602081019050919050565b82818337600083830152505050565b6000610b32610b2d84610adf565b610ac4565b905082815260208101848484011115610b4e57610b4d610a4e565b5b610b59848285610b10565b509392505050565b600082601f830112610b7657610b75610a49565b5b8135610b86848260208601610b1f565b91505092915050565b600060208284031215610ba557610ba4610a3f565b5b600082013567ffffffffffffffff811115610bc357610bc2610a44565b5b610bcf84828501610b61565b91505092915050565b600073ffffffffffffffffffffffffffffffffffffffff82169050919050565b6000610c0382610bd8565b9050919050565b610c1381610bf8565b82525050565b6000602082019050610c2e6000830184610c0a565b92915050565b600082825260208201905092915050565b7f456c656374696f6e206973207374696c6c20696e2070726f67726573732e0000600082015250565b6000610c7b601e83610c34565b9150610c8682610c45565b602082019050919050565b60006020820190508181036000830152610caa81610c6e565b9050919050565b7f456c656374696f6e20686173206e6f7420737461727465642079657400000000600082015250565b6000610ce7601c83610c34565b9150610cf282610cb1565b602082019050919050565b60006020820190508181036000830152610d1681610cda565b9050919050565b7f456c656374696f6e2068617320616c726561647920656e646564000000000000600082015250565b6000610d53601a83610c34565b9150610d5e82610d1d565b602082019050919050565b60006020820190508181036000830152610d8281610d46565b9050919050565b7f205468697320616464726573732068617320616c726561647920766f74656400600082015250565b6000610dbf601f83610c34565b9150610dca82610d89565b602082019050919050565b60006020820190508181036000830152610dee81610db2565b9050919050565b600081905092915050565b7f5265640000000000000000000000000000000000000000000000000000000000600082015250565b6000610e36600383610df5565b9150610e4182610e00565b600382019050919050565b6000610e5782610e29565b9150819050919050565b600081519050919050565b60005b83811015610e8a578082015181840152602081019050610e6f565b60008484015250505050565b6000610ea182610e61565b610eab8185610df5565b9350610ebb818560208601610e6c565b80840191505092915050565b6000610ed38284610e96565b915081905092915050565b7f426c756500000000000000000000000000000000000000000000000000000000600082015250565b6000610f14600483610df5565b9150610f1f82610ede565b600482019050919050565b6000610f3582610f07565b9150819050919050565b7f496e76616c69642063616e646964617465000000000000000000000000000000600082015250565b6000610f75601183610c34565b9150610f8082610f3f565b602082019050919050565b60006020820190508181036000830152610fa481610f68565b9050919050565b7f5468697320616374696f6e206973206f6e6c79206170706c696361626c65207460008201527f6f2074686520656c6563746f72616c20636f6c6c656765000000000000000000602082015250565b6000611007603783610c34565b915061101282610fab565b604082019050919050565b6000602082019050818103600083015261103681610ffa565b9050919050565b7f456c656374696f6e206861732073746172746564000000000000000000000000600082015250565b6000611073601483610c34565b915061107e8261103d565b602082019050919050565b600060208201905081810360008301526110a281611066565b9050919050565b6110b281610991565b82525050565b60007fff0000000000000000000000000000000000000000000000000000000000000082169050919050565b6110ed816110b8565b82525050565b600060408201905061110860008301856110a9565b61111560208301846110e4565b9392505050565b61112581610991565b811461113057600080fd5b50565b6000815190506111428161111c565b92915050565b60006020828403121561115e5761115d610a3f565b5b600061116c84828501611133565b91505092915050565b600060608201905061118a60008301866110a9565b61119760208301856110a9565b6111a460408301846110e4565b94935050505056fea26469706673582212203dd7dbae7bed240624f576e39b5b4e6987f7dc03f623a96d9c2753e99b254d4464736f6c634300081c0033",
  "linkReferences": {},
  "deployedLinkReferences": {}
}