{
  "contractName": "Election",
  "abi": [
    {
      "inputs": [],
      "stateMutability": "nonpayable",
      "type": "constructor"
    },
    {
      "inputs": [],
      "name": "count",
      "outputs": [
        {
          "internalType": "euint256",
          "name": "red_total",
          "type": "uint256"
        },
        {
          "internalType": "euint256",
          "name": "blue_total",
          "type": "uint256"
        }
      ],
      "stateMutability": "view",
      "type": "function"
    },
    {
      "inputs": [],
      "name": "ended",
      "outputs": [
        {
          "internalType": "bool",
          "name": "",
          "type": "bool"
        }
      ],
      "stateMutability": "view",
      "type": "function"
    },
    {
      "inputs": [],
      "name": "owner",
      "outputs": [
        {
          "internalType": "address",
          "name": "",
          "type": "address"
        }
      ],
      "stateMutability": "view",
      "type": "function"
    },
    {
      "inputs": [],
      "name": "started",
      "outputs": [
        {
          "internalType": "bool",
          "name": "",
          "type": "bool"
        }
      ],
      "stateMutability": "view",
      "type": "function"
    },
    {
      "inputs": [],
      "name": "startElection",
      "outputs": [],
      "stateMutability": "nonpayable",
      "type": "function"
    },
    {
      "inputs": [],
      "name": "endElection",
      "outputs": [],
      "stateMutability": "nonpayable",
      "type": "function"
    },
    {
      "inputs": [
        {
          "internalType": "string",
          "name": "_candidate",
          "type": "string"
        }
      ],
      "name": "Vote",
      "outputs": [],
      "stateMutability": "nonpayable",
      "type": "function"
    },
    {
      "inputs": [],
      "name": "GetCount",
      "outputs": [
        {
          "internalType": "euint256",
          "name": "redVotes",
          "type": "uint256"
        },
        {
          "internalType": "euint256",
          "name": "blueVotes",
          "type": "uint256"
        }
      ],
      "stateMutability": "view",
      "type": "function"
    },
    {
      "inputs": [],
      "name": "GetResults",
      "outputs": [
        {
          "internalType": "euint256",
          "name": "redVotes",
          "type": "uint256"
        },
        {
          "internalType": "euint256",
          "name": "blueVotes",
          "type": "uint256"
        }
      ],
      "stateMutability": "view",
      "type": "function"
    }
  ],
  "bytecode": "0x608060405234801561000f575f80fd5b50600380546001600160b01b0319163361ffff60a01b1916179055604080518082019091528061003e5f61005e565b815260200161004c5f61005e565b905280515f556020015160015561014d565b5f61006a826008610070565b92915050565b5f807fed8d60e34876f751cc8b014c560745351147d9de11b9347c854e881b128ea6006001810154604051631ce2e8d760e31b8152600481018790527fff0000000000000000000000000000000000000000000000000000000000000060f887901b1660248201529192506001600160a01b03169063e71746b8906044016020604051808303815f875af115801561010a573d5f803e3d5ffd5b505050506040513d601f19601f8201168201806040525081019061012e9190610136565b949350505050565b5f60208284031215610146575f80fd5b5051919050565b6108e08061015a5f395ff3fe608060405234801561000f575f80fd5b5060043610610090575f3560e01c80631f2698ab116100635780631f2698ab146100f1578063323082d71461010557806359f784681461011a57806362d73eb8146101225780638da5cb5b1461012a575f80fd5b806306661abd14610094578063088709c4146100bb5780630ab93971146100c357806312fa6feb146100cd575b5f80fd5b5f546001546100a1919082565b604080519283526020830191909152015b60405180910390f35b6100a1610155565b5f546001546100a1565b6003546100e190600160a81b900460ff1681565b60405190151581526020016100b2565b6003546100e190600160a01b900460ff1681565b61011861011336600461075f565b6101c2565b005b61011861040b565b6101186104fd565b60035461013d906001600160a01b031681565b6040516001600160a01b0390911681526020016100b2565b6003545f908190600160a81b900460ff166101b75760405162461bcd60e51b815260206004820152601e60248201527f456c656374696f6e206973207374696c6c20696e2070726f67726573732e000060448201526064015b60405180910390fd5b50505f546001549091565b600354600160a01b900460ff1661021b5760405162461bcd60e51b815260206004820152601c60248201527f456c656374696f6e20686173206e6f742073746172746564207965740000000060448201526064016101ae565b600354600160a81b900460ff16156102755760405162461bcd60e51b815260206004820152601a60248201527f456c656374696f6e2068617320616c726561647920656e64656400000000000060448201526064016101ae565b335f9081526002602052604090205460ff16156102d45760405162461bcd60e51b815260206004820152601f60248201527f205468697320616464726573732068617320616c726561647920766f7465640060448201526064016101ae565b6040516214995960ea1b6020820152602301604051602081830303815290604052805190602001208160405160200161030d919061080a565b6040516020818303038152906040528051906020012003610344575f5461033d90610338600161058e565b6105a0565b5f556103ef565b60405163426c756560e01b6020820152602401604051602081830303815290604052805190602001208160405160200161037e919061080a565b60405160208183030381529060405280519060200120036103b3576103ab5f60010154610338600161058e565b6001556103ef565b60405162461bcd60e51b8152602060048201526011602482015270496e76616c69642063616e64696461746560781b60448201526064016101ae565b50335f908152600260205260409020805460ff19166001179055565b6003546001600160a01b031633146104355760405162461bcd60e51b81526004016101ae90610836565b600354600160a01b900460ff1661048e5760405162461bcd60e51b815260206004820152601c60248201527f456c656374696f6e20686173206e6f742073746172746564207965740000000060448201526064016101ae565b600354600160a81b900460ff16156104e85760405162461bcd60e51b815260206004820152601a60248201527f456c656374696f6e2068617320616c726561647920656e64656400000000000060448201526064016101ae565b6003805460ff60a81b1916600160a81b179055565b6003546001600160a01b031633146105275760405162461bcd60e51b81526004016101ae90610836565b600354600160a01b900460ff16156105785760405162461bcd60e51b8152602060048201526014602482015273115b1958dd1a5bdb881a185cc81cdd185c9d195960621b60448201526064016101ae565b6003805461ffff60a01b1916600160a01b179055565b5f61059a8260086105d5565b92915050565b5f826105b2576105af5f61058e565b92505b816105c3576105c05f61058e565b91505b6105ce83835f610683565b9392505050565b5f807fed8d60e34876f751cc8b014c560745351147d9de11b9347c854e881b128ea6006001810154604051631ce2e8d760e31b8152600481018790526001600160f81b031960f887901b1660248201529192506001600160a01b03169063e71746b8906044016020604051808303815f875af1158015610657573d5f803e3d5ffd5b505050506040513d601f19601f8201168201806040525081019061067b9190610893565b949350505050565b5f8082156106965750600160f81b610699565b505f5b5f7fed8d60e34876f751cc8b014c560745351147d9de11b9347c854e881b128ea600600181015460405163f953e42760e01b815260048101899052602481018890526001600160f81b0319851660448201529192506001600160a01b03169063f953e427906064016020604051808303815f875af115801561071d573d5f803e3d5ffd5b505050506040513d601f19601f820116820180604052508101906107419190610893565b9695505050505050565b634e487b7160e01b5f52604160045260245ffd5b5f6020828403121561076f575f80fd5b813567ffffffffffffffff80821115610786575f80fd5b818401915084601f830112610799575f80fd5b8135818111156107ab576107ab61074b565b604051601f8201601f19908116603f011681019083821181831017156107d3576107d361074b565b816040528281528760208487010111156107eb575f80fd5b826020860160208301375f928101602001929092525095945050505050565b5f82515f5b81811015610829576020818601810151858301520161080f565b505f920191825250919050565b60208082526037908201527f5468697320616374696f6e206973206f6e6c79206170706c696361626c65207460408201527f6f2074686520656c6563746f72616c20636f6c6c656765000000000000000000606082015260800190565b5f602082840312156108a3575f80fd5b505191905056fea26469706673582212204e60c6c3618a2b07692cb4743031f14240defd07d7e7ca2f230cdf3b7b20757d64736f6c63430008180033",
  "immutableReferences": {},
  "source": "// SPDX-License-Identifier: MIT\npragma solidity ^0.8.0;\n\nimport \"fhevm/lib/TFHE.sol\";\nimport \"fhevm/config/ZamaFHEVMConfig.sol\";\n\ncontract Election {\n    struct Counts {\n        euint256 red_total; // Total votes for red candidate set as encrypted Euint Value\n        euint256 blue_total; // Total votes for blue candidate set as encrypted Euint Value\n    }\n\n    Counts public count;\n\n    // initializing the totals as encrypted values\n    \n\n    mapping(address => bool) private hasVoted;\n\n    address public owner;\n    bool public started;\n    bool public ended;\n\n    constructor()\n    {\n        owner = msg.sender;\n        started = false;\n        ended = false;\n\t//setting totals as encrypted values\n        count = Counts({\n\t\n\tred_total: TFHE.asEuint256(0),\n        blue_total: TFHE.asEuint256(0)\n\t});\n    }\n\n    modifier onlyOwner()\n    {\n        require(msg.sender == owner, \"This action is only applicable to the electoral college\");\n        _;\n    }\n\n    function startElection() public onlyOwner\n    {\n        require(!started, \"Election has started\");\n        started = true;\n        ended = false;\n    }\n\n    function endElection() public onlyOwner\n    {\n        require(started, \"Election has not started yet\");\n        require (!ended, \"Election has already ended\");\n        ended = true;\n    }\n\n\n\n    // Vote function: Cast a vote for \"Red\" or \"Blue\"\n    function Vote(string memory _candidate) public {\n        // Ensure the voter hasn't already voted\n        require(started, \"Election has not started yet\");\n        require (!ended, \"Election has already ended\");\n        require(!hasVoted[msg.sender], \" This address has already voted\");\n\n\t\n\n        // Check the candidate and increment the respective count\n        if (keccak256(abi.encodePacked(_candidate)) == keccak256(abi.encodePacked(\"Red\"))) {\n            count.red_total = TFHE.add(count.red_total, TFHE.asEuint256(1));\n        } else if (keccak256(abi.encodePacked(_candidate)) == keccak256(abi.encodePacked(\"Blue\"))) {\n            count.blue_total = TFHE.add(count.blue_total, TFHE.asEuint256(1));\n        } else {\n            revert(\"Invalid candidate\"); // Reject invalid candidates\n        }\n\n        // Mark the sender as having voted\n        hasVoted[msg.sender] = true;\n    }\n\n    // GetCount function: Return the current vote totals\n    function GetCount() public view returns (euint256 redVotes, euint256 blueVotes) {\n        return (count.red_total, count.blue_total);\n    }\n\n    function GetResults() public view returns (euint256 redVotes, euint256 blueVotes)\n    {\n        require(ended, \"Election is still in progress.\");\n        return (count.red_total, count.blue_total);\n    }\n\n}\n",
  "sourcePath": "/home/terry/Desktop/Zama/blockchain/backend/contracts/election.sol",
  "compiler": {
    "name": "solc",
    "version": "0.8.24+commit.e11b9ed9.Emscripten.clang"
  },
  "schemaVersion": "3.4.16",
  "updatedAt": "2025-02-13T22:04:09.869Z",
  "devdoc": {
    "kind": "dev",
    "methods": {},
    "version": 1
  },
  "userdoc": {
    "kind": "user",
    "methods": {},
    "version": 1
  }
}