{
  "contractName": "Election",
  "abi": [
    {
      "inputs": [],
      "stateMutability": "nonpayable",
      "type": "constructor"
    },
    {
      "inputs": [],
      "name": "count",
      "outputs": [
        {
          "internalType": "euint256",
          "name": "red_total",
          "type": "uint256"
        },
        {
          "internalType": "euint256",
          "name": "blue_total",
          "type": "uint256"
        }
      ],
      "stateMutability": "view",
      "type": "function"
    },
    {
      "inputs": [],
      "name": "ended",
      "outputs": [
        {
          "internalType": "bool",
          "name": "",
          "type": "bool"
        }
      ],
      "stateMutability": "view",
      "type": "function"
    },
    {
      "inputs": [],
      "name": "owner",
      "outputs": [
        {
          "internalType": "address",
          "name": "",
          "type": "address"
        }
      ],
      "stateMutability": "view",
      "type": "function"
    },
    {
      "inputs": [],
      "name": "started",
      "outputs": [
        {
          "internalType": "bool",
          "name": "",
          "type": "bool"
        }
      ],
      "stateMutability": "view",
      "type": "function"
    },
    {
      "inputs": [],
      "name": "initializeCounts",
      "outputs": [],
      "stateMutability": "nonpayable",
      "type": "function"
    },
    {
      "inputs": [],
      "name": "startElection",
      "outputs": [],
      "stateMutability": "nonpayable",
      "type": "function"
    },
    {
      "inputs": [],
      "name": "endElection",
      "outputs": [],
      "stateMutability": "nonpayable",
      "type": "function"
    },
    {
      "inputs": [
        {
          "internalType": "string",
          "name": "_candidate",
          "type": "string"
        }
      ],
      "name": "Vote",
      "outputs": [],
      "stateMutability": "nonpayable",
      "type": "function"
    },
    {
      "inputs": [],
      "name": "GetCount",
      "outputs": [
        {
          "internalType": "euint256",
          "name": "redVotes",
          "type": "uint256"
        },
        {
          "internalType": "euint256",
          "name": "blueVotes",
          "type": "uint256"
        }
      ],
      "stateMutability": "view",
      "type": "function"
    },
    {
      "inputs": [],
      "name": "GetResults",
      "outputs": [
        {
          "internalType": "euint256",
          "name": "redVotes",
          "type": "uint256"
        },
        {
          "internalType": "euint256",
          "name": "blueVotes",
          "type": "uint256"
        }
      ],
      "stateMutability": "view",
      "type": "function"
    }
  ],
  "bytecode": "0x608060405234801561000f575f80fd5b50600380546001600160b01b0319163361ffff60a01b1916179055610968806100375f395ff3fe608060405234801561000f575f80fd5b506004361061009b575f3560e01c8063323082d711610063578063323082d71461011057806359f784681461012557806362d73eb81461012d5780638da5cb5b14610135578063f21f8a1e14610160575f80fd5b806306661abd1461009f578063088709c4146100c65780630ab93971146100ce57806312fa6feb146100d85780631f2698ab146100fc575b5f80fd5b5f546001546100ac919082565b604080519283526020830191909152015b60405180910390f35b6100ac610168565b5f546001546100ac565b6003546100ec90600160a81b900460ff1681565b60405190151581526020016100bd565b6003546100ec90600160a01b900460ff1681565b61012361011e3660046107e7565b6101d5565b005b61012361041e565b610123610510565b600354610148906001600160a01b031681565b6040516001600160a01b0390911681526020016100bd565b6101236105a1565b6003545f908190600160a81b900460ff166101ca5760405162461bcd60e51b815260206004820152601e60248201527f456c656374696f6e206973207374696c6c20696e2070726f67726573732e000060448201526064015b60405180910390fd5b50505f546001549091565b600354600160a01b900460ff1661022e5760405162461bcd60e51b815260206004820152601c60248201527f456c656374696f6e20686173206e6f742073746172746564207965740000000060448201526064016101c1565b600354600160a81b900460ff16156102885760405162461bcd60e51b815260206004820152601a60248201527f456c656374696f6e2068617320616c726561647920656e64656400000000000060448201526064016101c1565b335f9081526002602052604090205460ff16156102e75760405162461bcd60e51b815260206004820152601f60248201527f205468697320616464726573732068617320616c726561647920766f7465640060448201526064016101c1565b6040516214995960ea1b602082015260230160405160208183030381529060405280519060200120816040516020016103209190610892565b6040516020818303038152906040528051906020012003610357575f546103509061034b6001610616565b610628565b5f55610402565b60405163426c756560e01b602082015260240160405160208183030381529060405280519060200120816040516020016103919190610892565b60405160208183030381529060405280519060200120036103c6576103be5f6001015461034b6001610616565b600155610402565b60405162461bcd60e51b8152602060048201526011602482015270496e76616c69642063616e64696461746560781b60448201526064016101c1565b50335f908152600260205260409020805460ff19166001179055565b6003546001600160a01b031633146104485760405162461bcd60e51b81526004016101c1906108be565b600354600160a01b900460ff166104a15760405162461bcd60e51b815260206004820152601c60248201527f456c656374696f6e20686173206e6f742073746172746564207965740000000060448201526064016101c1565b600354600160a81b900460ff16156104fb5760405162461bcd60e51b815260206004820152601a60248201527f456c656374696f6e2068617320616c726561647920656e64656400000000000060448201526064016101c1565b6003805460ff60a81b1916600160a81b179055565b6003546001600160a01b0316331461053a5760405162461bcd60e51b81526004016101c1906108be565b600354600160a01b900460ff161561058b5760405162461bcd60e51b8152602060048201526014602482015273115b1958dd1a5bdb881a185cc81cdd185c9d195960621b60448201526064016101c1565b6003805461ffff60a01b1916600160a01b179055565b6003546001600160a01b031633146105fb5760405162461bcd60e51b815260206004820181905260248201527f4f6e6c79206f776e65722063616e20696e697469616c697a6520636f756e747360448201526064016101c1565b6106045f610616565b5f90815561061190610616565b600155565b5f61062282600861065d565b92915050565b5f8261063a576106375f610616565b92505b8161064b576106485f610616565b91505b61065683835f61070b565b9392505050565b5f807fed8d60e34876f751cc8b014c560745351147d9de11b9347c854e881b128ea6006001810154604051631ce2e8d760e31b8152600481018790526001600160f81b031960f887901b1660248201529192506001600160a01b03169063e71746b8906044016020604051808303815f875af11580156106df573d5f803e3d5ffd5b505050506040513d601f19601f82011682018060405250810190610703919061091b565b949350505050565b5f80821561071e5750600160f81b610721565b505f5b5f7fed8d60e34876f751cc8b014c560745351147d9de11b9347c854e881b128ea600600181015460405163f953e42760e01b815260048101899052602481018890526001600160f81b0319851660448201529192506001600160a01b03169063f953e427906064016020604051808303815f875af11580156107a5573d5f803e3d5ffd5b505050506040513d601f19601f820116820180604052508101906107c9919061091b565b9695505050505050565b634e487b7160e01b5f52604160045260245ffd5b5f602082840312156107f7575f80fd5b813567ffffffffffffffff8082111561080e575f80fd5b818401915084601f830112610821575f80fd5b813581811115610833576108336107d3565b604051601f8201601f19908116603f0116810190838211818310171561085b5761085b6107d3565b81604052828152876020848701011115610873575f80fd5b826020860160208301375f928101602001929092525095945050505050565b5f82515f5b818110156108b15760208186018101518583015201610897565b505f920191825250919050565b60208082526037908201527f5468697320616374696f6e206973206f6e6c79206170706c696361626c65207460408201527f6f2074686520656c6563746f72616c20636f6c6c656765000000000000000000606082015260800190565b5f6020828403121561092b575f80fd5b505191905056fea2646970667358221220cd1e62a551e219cdc8387234ae65d1bf99da4534af13d7a29560c7d34e99910464736f6c63430008180033",
  "immutableReferences": {},
  "source": "// SPDX-License-Identifier: MIT\npragma solidity ^0.8.0;\n\nimport \"fhevm/lib/TFHE.sol\";\nimport \"fhevm/config/ZamaFHEVMConfig.sol\";\n\ncontract Election {\n    struct Counts {\n        euint256 red_total; // Total votes for red candidate set as encrypted Euint Value\n        euint256 blue_total; // Total votes for blue candidate set as encrypted Euint Value\n    }\n\n    Counts public count;\n\n    // initializing the totals as encrypted values\n    \n\n    mapping(address => bool) private hasVoted;\n\n    address public owner;\n    bool public started;\n    bool public ended;\n\n    constructor()\n    {\n        owner = msg.sender;\n        started = false;\n        ended = false;\n\t//setting totals as encrypted values\n       /* count = Counts({\n\t\n\tred_total: TFHE.asEuint256(0),\n        blue_total: TFHE.asEuint256(0)\n\t});*/\n    }\n\n    function initializeCounts() public \n    {\n\t    require(msg.sender == owner, \"Only owner can initialize counts\");\n\t    count.red_total = TFHE.asEuint256(0);\n\t    count.blue_total = TFHE.asEuint256(0);\n    }\n\n    modifier onlyOwner()\n    {\n        require(msg.sender == owner, \"This action is only applicable to the electoral college\");\n        _;\n    }\n\n    function startElection() public onlyOwner\n    {\n        require(!started, \"Election has started\");\n        started = true;\n        ended = false;\n    }\n\n    function endElection() public onlyOwner\n    {\n        require(started, \"Election has not started yet\");\n        require (!ended, \"Election has already ended\");\n        ended = true;\n    }\n\n\n\n    // Vote function: Cast a vote for \"Red\" or \"Blue\"\n    function Vote(string memory _candidate) public {\n        // Ensure the voter hasn't already voted\n        require(started, \"Election has not started yet\");\n        require (!ended, \"Election has already ended\");\n        require(!hasVoted[msg.sender], \" This address has already voted\");\n\n\t\n\n        // Check the candidate and increment the respective count\n        if (keccak256(abi.encodePacked(_candidate)) == keccak256(abi.encodePacked(\"Red\"))) {\n            count.red_total = TFHE.add(count.red_total, TFHE.asEuint256(1));\n        } else if (keccak256(abi.encodePacked(_candidate)) == keccak256(abi.encodePacked(\"Blue\"))) {\n            count.blue_total = TFHE.add(count.blue_total, TFHE.asEuint256(1));\n        } else {\n            revert(\"Invalid candidate\"); // Reject invalid candidates\n        }\n\n        // Mark the sender as having voted\n        hasVoted[msg.sender] = true;\n    }\n\n    // GetCount function: Return the current vote totals\n    function GetCount() public view returns (euint256 redVotes, euint256 blueVotes) {\n        return (count.red_total, count.blue_total);\n    }\n\n    function GetResults() public view returns (euint256 redVotes, euint256 blueVotes)\n    {\n        require(ended, \"Election is still in progress.\");\n        return (count.red_total, count.blue_total);\n    }\n\n}\n",
  "sourcePath": "/home/terry/Desktop/Zama/blockchain/backend/contracts/election.sol",
  "compiler": {
    "name": "solc",
    "version": "0.8.24+commit.e11b9ed9.Emscripten.clang"
  },
  "schemaVersion": "3.4.16",
  "updatedAt": "2025-02-20T23:03:36.579Z",
  "devdoc": {
    "kind": "dev",
    "methods": {},
    "version": 1
  },
  "userdoc": {
    "kind": "user",
    "methods": {},
    "version": 1
  }
}